:020000040800F2
:1000000000040020D7010008E5010008E70100080E
:10001000E9010008EB010008ED0100080000000004
:10002000000000000000000000000000EF010008D8
:10003000F101000800000000F3010008F5010008CC
:10004000F7010008F7010008F7010008F7010008B0
:10005000F7010008F7010008F7010008F7010008A0
:10006000F7010008F7010008F7010008F701000890
:10007000F7010008F7010008F7010008F701000880
:10008000F7010008F7010008F7010008F701000870
:10009000F7010008F7010008F7010008F701000860
:1000A000F7010008F7010008F7010008F701000850
:1000B000F7010008F7010008F7010008F701000840
:1000C000F7010008F7010008F7010008F701000830
:1000D000F7010008F7010008F7010008F701000820
:1000E000F7010008F7010008F7010008F701000810
:1000F000F7010008F7010008F7010008F701000800
:10010000F7010008F7010008F7010008F7010008EF
:10011000F7010008F7010008F7010008F7010008DF
:10012000F7010008F7010008F7010008F7010008CF
:1001300000F002F800F03CF80AA090E8000C8244BD
:100140008344AAF10107DA4501D100F031F8AFF29A
:10015000090EBAE80F0013F0010F18BFFB1A43F0A5
:1001600001031847640D0000840D0000103A24BFFD
:1001700078C878C1FAD8520724BF30C830C144BF0C
:1001800004680C607047000000230024002500264E
:10019000103A28BF78C1FBD8520728BF30C148BFEA
:1001A0000B6070471FB500F002FE1FBD10B510BDFB
:1001B00000F0A9FB1146FFF7F5FF00F031F800F061
:1001C000C7FB03B4FFF7F2FF03BC00F06DFA0000B9
:1001D00030BF000070470B4880470B4981F3088807
:1001E0000A480047FEE7FEE7FEE7FEE7FEE7FEE718
:1001F000FEE7FEE7FEE7FEE705480649064A074B2D
:1002000070470000D5010008680600203101000891
:1002100068000020680600206802002068020020B4
:10022000092000F0DCF9482000F06AF800F042FBF9
:1002300000F0B2FA0020304908605CE0002000F0D5
:10024000DCFA0446C4B3012C3BD0022C22D0032C90
:1002500017D0042C4BD12848006808B9012000E0D1
:100260000020254908604FF0320000F05FF8234875
:10027000D0F8940108B9012000E000201E49086070
:1002800035E01D48006808B9012000E000201A4947
:1002900008602CE01848006808B9012000E0002040
:1002A000154908604FF0640000F040F81348D0F89A
:1002B000940110B9012001E01AE000200E49086005
:1002C00015E00D48006808B9012000E000200A4947
:1002D00008604FF0960000F029F80848D0F8940123
:1002E00008B9012000E000200349086000BF02E0D7
:1002F0000A2000F01BF8A1E79481214200802142EE
:100300004FF0E021096921F004014FF0E022116172
:10031000C21700EB5272D2101F4B1A70194609789F
:100320004FF47A7251431D4A1180704701461B4AAF
:1003300012884A434FF0E0235A6100229A61012259
:100340001A6100BF4FF0E022106910F0010F02D0D7
:1003500010F4803FF6D000224FF0E0231A619A613A
:10036000704701460C4A12784A434FF0E0235A6125
:1003700000229A6101221A6100BF4FF0E022106949
:1003800010F0010F02D010F4803FF6D000224FF0A1
:10039000E0231A619A6170470000002002000020EB
:1003A000AF4A0A400243AF4B1A6070470146072329
:1003B00023EA01021202AC4B18684FF6FF0300EA71
:1003C0000300AA4B40EA030040EA02004FF0E0239A
:1003D000C3F80C0D70472DE9F04780468946144656
:1003E0001D462046E11704EB91714FEAA10AE1177F
:1003F00004EB91718910A4EB8101CFB2042000EBD2
:10040000C700C7B22846FFF7D1FFC5F1040008FABC
:1004100000F60F20284100EA0900064306F00F0607
:10042000202C0CDA924800684FF0010101FA04F127
:1004300040EA01004FF0E021C1F800010DE08D48D5
:100440000068A4F120014FF0010202FA01F240EA33
:1004500002004FF0E021C1F80401874850F82A005B
:1004600006FA07F10843844941F82A00BDE8F087FD
:1004700070B504460B46CE1701EB9676B010CE173A
:1004800001EB9676B610A1EB8606B606350E7B4BD1
:100490009B6943F00103794EB3614FEAB63353F8D9
:1004A00020300F26AE40B343754E46F82030334619
:1004B00053F8203004FA05F63343714E46F82030E5
:1004C000704B1E684FF0010303FA01F346EA03067E
:1004D0006D4BC3F8006412F0010F0AD06B4B1B6820
:1004E0004FF0010606FA01F643EA0603664EC6F827
:1004F0000C3412F0020F0AD0654B1B684FF0010656
:1005000006FA01F643EA06035F4EC6F8083470BDEA
:1005100000B5002059490861C860142048610020D6
:100520008861C8610846006840F00100086008461C
:100530004068584908405149486008460068564993
:1005400008404E4908600846006820F48020086092
:100550000846406820F4FE004860002088600021C2
:100560004FF00060FFF71CFF00BD10B54B4800685E
:1005700040F004004FF0E021C1F8100D3F48C06981
:1005800040F080503D49C8614548406840F4807063
:10059000434948600846006840F004000860084687
:1005A000006840F002000860FFF712FE10BD2F48FF
:1005B000001D2D4908607047014649062F4A92697F
:1005C00042F001022D4B9A612F4A526822F0E062FC
:1005D0002D4B5A601A4652680A435A60704730B52C
:1005E00004460025FFF794FF2448006840F480305B
:1005F0002249086000BF21480068400CFBD04FF43E
:1006000080601E494860A01EC4B20846406840EAA7
:10061000844048600846406840F480304860214883
:10062000006840F032001F4908601448006840F03C
:1006300080701249086000BF10480068400EFBD06F
:100640000E48406840F002000C49486005E00B4845
:100650004068C0F3870505F00305022DF7D130BDD2
:1006600080FFFF1F08ED00E00CED00E00000FA0540
:1006700000E100E004E100E000E400E000100240DE
:100680000800014000040140000001400C0401404A
:10069000080401400000FFF8FFFFF6FE10ED00E047
:1006A0000070004000200240014600BF704700BFBC
:1006B000314A128812F0400FFAD0C2B22F4B1A8082
:1006C00070472DE9F05F05460E46300100F094FAC0
:1006D00081462B4905FB01F000F08EFA824649461F
:1006E00000F0A8F90746384600F066FA84B22046C2
:1006F00000F082FA8346394600F065FB82464FF0EF
:10070000834100F08DFA814600F056FA80462401BC
:1007100004EB080084B21B48806940F004001949CA
:1007200088610846806940F4804088611648006806
:1007300020F47F601549C1F804080846D0F8040881
:1007400040F40B60C1F804080E48C06840F48040D3
:100750000C49C8600846C06820F48040C8600C4856
:10076000A0F808480B48008842F20C0140EA01005A
:1007700008490880BDE8F09F003801400438014076
:1007800040420F00001002400408014000000140F8
:10079000003001400C3801403A48806940F00400C4
:1007A000384988610846806940F0400088613648D1
:1007B000006820F00F003549C1F800080846D0F85D
:1007C000000840F00800C1F80008314800683149CD
:1007D00000EA01003049C1F800082D4800682F499F
:1007E00040EA01002C49C1F800080846D0F80C087E
:1007F00040F01C00C1F80C08704710B5044614B155
:100800000120274908702648007830B32548006841
:1008100048B12548006830B12448006818B1244820
:100820000068012819D10A20FFF780FD00201C492B
:1008300008701C48006808B9012010BD1A480068FB
:1008400008B90220F9E71948006808B90320F4E75D
:100850001748006898B90420EFE71248006801289B
:100860000DD111480068012809D1104800680128FD
:1008700005D10F48006810B901200949087000200F
:10088000DBE70000001002400008014000000140CA
:1008900000180140FF00F0FF001001400088080030
:1008A00004000020100123420C01234208012342CE
:1008B000000121420E48806940F008000C4988611F
:1008C0000C4800686FF0706100EA01000A49C1F845
:1008D000000C0846D0F8000C40F04070C1F8000C45
:1008E0000846D0F80C0C40F02000C1F80C0C704702
:1008F00000100240000C01400000014070477047AA
:10090000704770477047754600F028F8AE460500FE
:100910006946534620F00700854618B020B5FFF71A
:100920006BFCBDE820404FF000064FF000074FF091
:1009300000084FF0000B21F00701AC46ACE8C009FD
:10094000ACE8C009ACE8C009ACE8C0098D46704706
:100950000446AFF300802046FFF733FC00487047A1
:100960000800002001487047704700BF0C000020BD
:1009700090EA010F48BF81F0004100F13682421A2F
:100980003CBF801A89184FEAD0524FF07F4C1CEAC6
:10099000410FA2EBD15318BF9CEA026F00F03B80DD
:1009A0004FF0004C4CEA00204CEA012121FA03FCF4
:1009B00010EB0C0C1ED202F1FF325FEA1C2040EB60
:1009C000C25038BF70471CF07F0F4FEA400C18BF71
:1009D000BCF17F4F38BF7047C3F12003994008BF77
:1009E00020F00100BCF17F4F38BF7047A0F1C0403C
:1009F00000F0E4B94FEA3C00000A40EBC25028BFC7
:100A00001CF0FF0F4FEA400CE6D018BFBCF17F4F3F
:100A100038BF7047EAE79CEA026F05D010EA5C0F26
:100A200008BF00F00040704710B500F07AF900BF31
:100A300064FBBE3E4FF47F0C1CEAD0121EBF1CEAC2
:100A4000D11392EA0C0F93EA0C0F00F0858090EA24
:100A5000010F48BF42F4807240F4000C41F40000E2
:100A60002CF07F4120F07F4000B58142A2EB0302D1
:100A70000FF2081CACEB504EC0F100009EF800E0F5
:100A80004FEA4E0E00FB0EFC38BF49004FEA2C1C0B
:100A900002F5FA020CFB0EF34FEACE1E4FEA112CC0
:100AA0004FEAC1210EEB635E42EB22420EFB0CFCCF
:100AB0004FEA1C5300FB03114FEA112C4FEA01319E
:100AC0000EFB0CFC4FEADC4C00FB0C11C14228BFB2
:100AD00009184CEB03335DF804EB10EB410143EBD9
:100AE000C250B2F57C0F38BF704729D512F0F00F15
:100AF0001CBF00F1C04000F00040704700818283BD
:100B00008485868788898B8C8D8E8F91929395961C
:100B100097999A9C9D9FA0A2A3A5A7A8AAACAEB0A6
:100B2000B2B3B5B7B9BCBEC0C2C5C7C9CCCED1D4AB
:100B3000D7D9DCDFE2E6E9ECF0F3F7FAFE000000DB
:100B40004FEA400C0CF1807CBCF17E4F28BF70470F
:100B5000B0F1C04000F032B990EA010F0CEAD113B5
:100B600048BF42F48072624538BF634507D213F430
:100B70007F0F16D080EA010000F00040704710B5EA
:100B800000F0CFF8097EFC3E00F005B880EA0100D5
:100B900000F00040704780EA010000F0004000F0E3
:100BA0000DB912F47F0F04BF0248704780EA0100BC
:100BB00000F004B90000C07FC10DD1F19E0206DB38
:100BC0004FEA002343F0004323FA02F0704700424B
:100BD00007D54FEA4001B1F1FE4F02D24FF00000BD
:100BE000704710B500F09DF84992248000207047AE
:100BF0006FEA200070470000B0FA80F310FA03F2A9
:100C0000C3F19D030AD0D90501EB1220530638BF6A
:100C1000704700F1010008BF20F00100704700009C
:100C20004FF47F0C1CEAD0121EBF1CEAD11392EACB
:100C30000C0F93EA0C0F00F0478090EA010F48BFB9
:100C400042F480724FF0004C4CEA00204CEA012143
:100C500002EB0302A0FB0113A2F50002002918BF5A
:100C600043F001035B0028BF4FEA330342EB22420B
:100C70005FEA132C4CEBC2502EBFBCEB436FB2F5B6
:100C80007C0F70474FEA036CBCF1004F08BF20F0A7
:100C90000100B2F57C0F38BF70470BD582F0FF0220
:100CA00012F5803FC8BF704700F1C040D8BF00F0C8
:100CB0000040704700F5000C5FEA4C0C48BF7047DD
:100CC000B0F1C04000F07AB890EA010F0CEAD113FD
:100CD00048BF42F48072624538BF634504D280EA5F
:100CE000010000F00040704710B500F01AF800BF96
:100CF0008900013E00F007B800F009B85FEA410C36
:100D00005FEA1C6C08D080EA010000F057B85FEA87
:100D1000400C5FEA1C6CF6D14FF00040A0F580005B
:100D200070470EF1020E2EF0030E5EF8044B2442C3
:100D300004D44FEA4102B2F17F4F11D84FEA400389
:100D4000B3F17F4F0CD80ED14FEAD07CB2F17F4F78
:100D50000CEB4C0C0CF1020C08BF4CEBD17C04E00A
:100D60004FF0080C01E04FEAD17C0CEB4C0324FA65
:100D700003F404F00704B4F1040C06D20EEB840C67
:100D8000BDE810404CF0010C6047DFE80CF00708AC
:100D900002024FF00040A0F5800010BD084642005E
:100DA00018BFD2F1807288BF00F0004010BD10B5AE
:100DB000FFF7D8FD4FF00001016010BDFF2141EAAF
:100DC000D050C005704780F0004090EA010F7FF5D9
:100DD000D6AD81F0004100F008B8000090EA010FA4
:100DE00048BF81F000413FF5CAAD421A04D882F0F5
:100DF0000042A0EB020011444FEAD0524FF07F4C6A
:100E00001CEA410FA2EBD15318BF9CEA026F4AD0F3
:100E10004FF0004C4CEA00204CEA012121FA03FC7F
:100E2000B0EB0C0C0FD412F0FE0F36D05FEA4C0082
:100E30001DD5001240EBC25038BF70471CF03F0F69
:100E400018BF70470BE0A2F101025FEA1C2040EBE3
:100E5000C25038BF70471CF07F0F18BF7047C3F1F6
:100E60002003994014BF401E20F001007047800805
:100E70004FEA122308BF7047B0FA80FCA2EB0C02C5
:100E8000CCF1280C60FA0CF093EA122F04BF00EBAF
:100E9000C25070474FEAC3707047130A5FEADC1014
:100EA00008BF7047F6E79CEA026F04D010EA5C0FB7
:100EB00008BF0020704710B5FFF733FF40DFF63E54
:100EC00081F0004070470000E80E0008000000209C
:100ED000080000006C010008F00E00080800002067
:100EE000600600008801000800000000010000000A
:0400000508000131BD
:00000001FF
